{
  "contractName": "EscrowFactory",
  "abi": [
    {
      "anonymous": false,
      "inputs": [
        {
          "indexed": false,
          "internalType": "address",
          "name": "escrow",
          "type": "address"
        }
      ],
      "name": "Created",
      "type": "event"
    },
    {
      "inputs": [
        {
          "internalType": "address",
          "name": "_buyer",
          "type": "address"
        },
        {
          "internalType": "address",
          "name": "_seller",
          "type": "address"
        },
        {
          "internalType": "uint256",
          "name": "_cost",
          "type": "uint256"
        },
        {
          "internalType": "string",
          "name": "_description",
          "type": "string"
        }
      ],
      "name": "newEscrow",
      "outputs": [
        {
          "internalType": "address",
          "name": "",
          "type": "address"
        }
      ],
      "stateMutability": "nonpayable",
      "type": "function"
    }
  ],
  "bytecode": "0x608060405234801561000f575f80fd5b506129528061001d5f395ff3fe608060405234801561000f575f80fd5b5060043610610029575f3560e01c8063c5c256581461002d575b5f80fd5b6100476004803603810190610042919061031d565b61005d565b60405161005491906103ac565b60405180910390f35b5f8060405161006b90610136565b604051809103905ff080158015610084573d5f803e3d5ffd5b5090508073ffffffffffffffffffffffffffffffffffffffff16639fec600b878787876040518563ffffffff1660e01b81526004016100c6949392919061044e565b5f604051808303815f87803b1580156100dd575f80fd5b505af11580156100ef573d5f803e3d5ffd5b505050507f1449abf21e49fd025f33495e77f7b1461caefdd3d4bb646424a3f445c4576a5b8160405161012291906103ac565b60405180910390a180915050949350505050565b6124848061049983390190565b5f604051905090565b5f80fd5b5f80fd5b5f73ffffffffffffffffffffffffffffffffffffffff82169050919050565b5f61017d82610154565b9050919050565b61018d81610173565b8114610197575f80fd5b50565b5f813590506101a881610184565b92915050565b5f819050919050565b6101c0816101ae565b81146101ca575f80fd5b50565b5f813590506101db816101b7565b92915050565b5f80fd5b5f80fd5b5f601f19601f8301169050919050565b7f4e487b71000000000000000000000000000000000000000000000000000000005f52604160045260245ffd5b61022f826101e9565b810181811067ffffffffffffffff8211171561024e5761024d6101f9565b5b80604052505050565b5f610260610143565b905061026c8282610226565b919050565b5f67ffffffffffffffff82111561028b5761028a6101f9565b5b610294826101e9565b9050602081019050919050565b828183375f83830152505050565b5f6102c16102bc84610271565b610257565b9050828152602081018484840111156102dd576102dc6101e5565b5b6102e88482856102a1565b509392505050565b5f82601f830112610304576103036101e1565b5b81356103148482602086016102af565b91505092915050565b5f805f80608085870312156103355761033461014c565b5b5f6103428782880161019a565b94505060206103538782880161019a565b9350506040610364878288016101cd565b925050606085013567ffffffffffffffff81111561038557610384610150565b5b610391878288016102f0565b91505092959194509250565b6103a681610173565b82525050565b5f6020820190506103bf5f83018461039d565b92915050565b6103ce816101ae565b82525050565b5f81519050919050565b5f82825260208201905092915050565b5f5b8381101561040b5780820151818401526020810190506103f0565b5f8484015250505050565b5f610420826103d4565b61042a81856103de565b935061043a8185602086016103ee565b610443816101e9565b840191505092915050565b5f6080820190506104615f83018761039d565b61046e602083018661039d565b61047b60408301856103c5565b818103606083015261048d8184610416565b90509594505050505056fe608060405234801562000010575f80fd5b50620000216200002760201b60201c565b62000191565b5f620000386200012b60201b60201c565b9050805f0160089054906101000a900460ff161562000083576040517ff92ee8a900000000000000000000000000000000000000000000000000000000815260040160405180910390fd5b67ffffffffffffffff8016815f015f9054906101000a900467ffffffffffffffff1667ffffffffffffffff1614620001285767ffffffffffffffff815f015f6101000a81548167ffffffffffffffff021916908367ffffffffffffffff1602179055507fc7f505b2f371ae2175ee4913f4499e1f2633a7b5936321eed1cdaeb6115181d267ffffffffffffffff6040516200011f919062000176565b60405180910390a15b50565b5f7ff0c57e16840df040f15088dc2f81fe391c3923bec73e23a9662efc9c229c6a00905090565b5f67ffffffffffffffff82169050919050565b620001708162000152565b82525050565b5f6020820190506200018b5f83018462000165565b92915050565b6122e5806200019f5f395ff3fe608060405260043610610108575f3560e01c806358f29334116100945780639fec600b116100635780639fec600b146102c6578063c19d93fb146102ee578063c569775814610318578063d0e30db014610342578063ea8a1af01461036c57610108565b806358f2933414610252578063678f3db61461025c5780637150d8ae146102725780637284e4161461029c57610108565b80631865c57d116100db5780631865c57d146101b45780631b9265b8146101de5780632a9605f4146101e85780632ba1b91314610212578063522e11771461023c57610108565b8063078c4f6e1461010c57806308551a531461013657806313faede61461016057806315c5f2631461018a575b5f80fd5b348015610117575f80fd5b50610120610382565b60405161012d91906115fd565b60405180910390f35b348015610141575f80fd5b5061014a610387565b6040516101579190611655565b60405180910390f35b34801561016b575f80fd5b506101746103ac565b6040516101819190611686565b60405180910390f35b348015610195575f80fd5b5061019e6103b2565b6040516101ab9190611686565b60405180910390f35b3480156101bf575f80fd5b506101c86103b8565b6040516101d59190611729565b60405180910390f35b6101e6610488565b005b3480156101f3575f80fd5b506101fc610651565b6040516102099190611686565b60405180910390f35b34801561021d575f80fd5b50610226610682565b6040516102339190611686565b60405180910390f35b348015610247575f80fd5b506102506106a6565b005b61025a610852565b005b348015610267575f80fd5b506102706109e4565b005b34801561027d575f80fd5b50610286610bf8565b6040516102939190611655565b60405180910390f35b3480156102a7575f80fd5b506102b0610c1d565b6040516102bd9190611729565b60405180910390f35b3480156102d1575f80fd5b506102ec60048036038101906102e79190611806565b610ca9565b005b3480156102f9575f80fd5b50610302611167565b60405161030f91906118fd565b60405180910390f35b348015610323575f80fd5b5061032c611179565b60405161033991906115fd565b60405180910390f35b34801561034d575f80fd5b5061035661117e565b6040516103639190611686565b60405180910390f35b348015610377575f80fd5b50610380611184565b005b600581565b60025f9054906101000a900473ffffffffffffffffffffffffffffffffffffffff1681565b60035481565b60065481565b60605f8060075f9054906101000a900460ff1660058111156103dd576103dc61188a565b5b60058111156103ef576103ee61188a565b5b81526020019081526020015f20805461040790611943565b80601f016020809104026020016040519081016040528092919081815260200182805461043390611943565b801561047e5780601f106104555761010080835404028352916020019161047e565b820191905f5260205f20905b81548152906001019060200180831161046157829003601f168201915b5050505050905090565b60015f9054906101000a900473ffffffffffffffffffffffffffffffffffffffff1673ffffffffffffffffffffffffffffffffffffffff163373ffffffffffffffffffffffffffffffffffffffff1614610517576040517f08c379a000000000000000000000000000000000000000000000000000000000815260040161050e906119bd565b60405180910390fd5b6001600581111561052b5761052a61188a565b5b60075f9054906101000a900460ff16600581111561054c5761054b61188a565b5b1461058c576040517f08c379a000000000000000000000000000000000000000000000000000000000815260040161058390611a25565b60405180910390fd5b610594610651565b3410156105d6576040517f08c379a00000000000000000000000000000000000000000000000000000000081526004016105cd90611a8d565b60405180910390fd5b3460055f8282546105e79190611ad8565b92505081905550600260075f6101000a81548160ff021916908360058111156106135761061261188a565b5b02179055507f51db83ab08784d623df719f2c307cea3f30e4b8d0eb813492444dd7ce745fa4e306040516106479190611655565b60405180910390a1565b5f6064600560ff166003546106669190611b0b565b6106709190611b79565b60035461067d9190611ad8565b905090565b5f6064600260ff166003546106979190611b0b565b6106a19190611b79565b905090565b60015f9054906101000a900473ffffffffffffffffffffffffffffffffffffffff1673ffffffffffffffffffffffffffffffffffffffff163373ffffffffffffffffffffffffffffffffffffffff1614610735576040517f08c379a000000000000000000000000000000000000000000000000000000000815260040161072c906119bd565b60405180910390fd5b600260058111156107495761074861188a565b5b60075f9054906101000a900460ff16600581111561076a5761076961188a565b5b14806107a85750600360058111156107855761078461188a565b5b60075f9054906101000a900460ff1660058111156107a6576107a561188a565b5b145b6107e7576040517f08c379a00000000000000000000000000000000000000000000000000000000081526004016107de90611bf3565b60405180910390fd5b600460075f6101000a81548160ff0219169083600581111561080c5761080b61188a565b5b021790555061081961140b565b7fd10c4deacf5650e34c19160855bfb6ef1be9dc1adac199b29434ffcc8c54f2c6306040516108489190611655565b60405180910390a1565b60025f9054906101000a900473ffffffffffffffffffffffffffffffffffffffff1673ffffffffffffffffffffffffffffffffffffffff163373ffffffffffffffffffffffffffffffffffffffff16146108e1576040517f08c379a00000000000000000000000000000000000000000000000000000000081526004016108d890611c5b565b60405180910390fd5b600260058111156108f5576108f461188a565b5b60075f9054906101000a900460ff1660058111156109165761091561188a565b5b14610956576040517f08c379a000000000000000000000000000000000000000000000000000000000815260040161094d90611cc3565b60405180910390fd5b61095e610682565b3410156109a0576040517f08c379a000000000000000000000000000000000000000000000000000000000815260040161099790611a8d565b60405180910390fd5b3460065f8282546109b19190611ad8565b92505081905550600360075f6101000a81548160ff021916908360058111156109dd576109dc61188a565b5b0217905550565b60025f9054906101000a900473ffffffffffffffffffffffffffffffffffffffff1673ffffffffffffffffffffffffffffffffffffffff163373ffffffffffffffffffffffffffffffffffffffff1614610a73576040517f08c379a0000000000000000000000000000000000000000000000000000000008152600401610a6a90611c5b565b60405180910390fd5b60046005811115610a8757610a8661188a565b5b60075f9054906101000a900460ff166005811115610aa857610aa761188a565b5b14610ae8576040517f08c379a0000000000000000000000000000000000000000000000000000000008152600401610adf90611d2b565b60405180910390fd5b600760019054906101000a900460ff1615610b38576040517f08c379a0000000000000000000000000000000000000000000000000000000008152600401610b2f90611d93565b60405180910390fd5b5f600654600354610b499190611ad8565b905060035460055f828254610b5e9190611db1565b925050819055505f6006819055506001600760016101000a81548160ff0219169083151502179055505f811115610bf55760025f9054906101000a900473ffffffffffffffffffffffffffffffffffffffff1673ffffffffffffffffffffffffffffffffffffffff166108fc8290811502906040515f60405180830381858888f19350505050158015610bf3573d5f803e3d5ffd5b505b50565b60015f9054906101000a900473ffffffffffffffffffffffffffffffffffffffff1681565b60048054610c2a90611943565b80601f0160208091040260200160405190810160405280929190818152602001828054610c5690611943565b8015610ca15780601f10610c7857610100808354040283529160200191610ca1565b820191905f5260205f20905b815481529060010190602001808311610c8457829003601f168201915b505050505081565b5f610cb26114bf565b90505f815f0160089054906101000a900460ff161590505f825f015f9054906101000a900467ffffffffffffffff1690505f808267ffffffffffffffff16148015610cfa5750825b90505f60018367ffffffffffffffff16148015610d2d57505f3073ffffffffffffffffffffffffffffffffffffffff163b145b905081158015610d3b575080155b15610d72576040517ff92ee8a900000000000000000000000000000000000000000000000000000000815260040160405180910390fd5b6001855f015f6101000a81548167ffffffffffffffff021916908367ffffffffffffffff1602179055508315610dbf576001855f0160086101000a81548160ff0219169083151502179055505b6040518060400160405280600c81526020017f6465616c206372656174656400000000000000000000000000000000000000008152505f8060016005811115610e0b57610e0a61188a565b5b6005811115610e1d57610e1c61188a565b5b81526020019081526020015f209081610e369190611fae565b506040518060400160405280600c81526020017f6465706f736974206d61646500000000000000000000000000000000000000008152505f8060026005811115610e8357610e8261188a565b5b6005811115610e9557610e9461188a565b5b81526020019081526020015f209081610eae9190611fae565b506040518060400160405280600e81526020017f6465706f7369742066726f7a656e0000000000000000000000000000000000008152505f8060036005811115610efb57610efa61188a565b5b6005811115610f0d57610f0c61188a565b5b81526020019081526020015f209081610f269190611fae565b506040518060400160405280600e81526020017f6465616c20636f6d706c657465640000000000000000000000000000000000008152505f8060046005811115610f7357610f7261188a565b5b6005811115610f8557610f8461188a565b5b81526020019081526020015f209081610f9e9190611fae565b506040518060400160405280600e81526020017f6465616c2063616e63656c6c65640000000000000000000000000000000000008152505f80600580811115610fea57610fe961188a565b5b6005811115610ffc57610ffb61188a565b5b81526020019081526020015f2090816110159190611fae565b508960015f6101000a81548173ffffffffffffffffffffffffffffffffffffffff021916908373ffffffffffffffffffffffffffffffffffffffff1602179055508860025f6101000a81548173ffffffffffffffffffffffffffffffffffffffff021916908373ffffffffffffffffffffffffffffffffffffffff160217905550876003819055508686600491826110ae929190612087565b505f6005819055505f600681905550600160075f6101000a81548160ff021916908360058111156110e2576110e161188a565b5b02179055505f600760016101000a81548160ff021916908315150217905550831561115b575f855f0160086101000a81548160ff0219169083151502179055507fc7f505b2f371ae2175ee4913f4499e1f2633a7b5936321eed1cdaeb6115181d2600160405161115291906121a0565b60405180910390a15b50505050505050505050565b60075f9054906101000a900460ff1681565b600281565b60055481565b60025f9054906101000a900473ffffffffffffffffffffffffffffffffffffffff1673ffffffffffffffffffffffffffffffffffffffff163373ffffffffffffffffffffffffffffffffffffffff16148061126a575060015f9054906101000a900473ffffffffffffffffffffffffffffffffffffffff1673ffffffffffffffffffffffffffffffffffffffff163373ffffffffffffffffffffffffffffffffffffffff161480156112695750600360058111156112455761124461188a565b5b60075f9054906101000a900460ff1660058111156112665761126561188a565b5b14155b5b6112a9576040517f08c379a00000000000000000000000000000000000000000000000000000000081526004016112a090612229565b60405180910390fd5b600160058111156112bd576112bc61188a565b5b60075f9054906101000a900460ff1660058111156112de576112dd61188a565b5b148061131c5750600260058111156112f9576112f861188a565b5b60075f9054906101000a900460ff16600581111561131a5761131961188a565b5b145b806113595750600360058111156113365761133561188a565b5b60075f9054906101000a900460ff1660058111156113575761135661188a565b5b145b611398576040517f08c379a000000000000000000000000000000000000000000000000000000000815260040161138f90612291565b60405180910390fd5b6113a06114e6565b6113a8611564565b600560075f6101000a81548160ff021916908360058111156113cd576113cc61188a565b5b02179055507f60ac998c1d339eec01b58033a87b1065901db6f19849071c98f584a675c347e4306040516114019190611655565b60405180910390a1565b5f6005549050600760019054906101000a900460ff1661143657600354816114339190611db1565b90505b8060055f8282546114479190611db1565b925050819055505f8111156114bc5760015f9054906101000a900473ffffffffffffffffffffffffffffffffffffffff1673ffffffffffffffffffffffffffffffffffffffff166108fc8290811502906040515f60405180830381858888f193505050501580156114ba573d5f803e3d5ffd5b505b50565b5f7ff0c57e16840df040f15088dc2f81fe391c3923bec73e23a9662efc9c229c6a00905090565b5f60055490505f6005819055505f8111156115615760015f9054906101000a900473ffffffffffffffffffffffffffffffffffffffff1673ffffffffffffffffffffffffffffffffffffffff166108fc8290811502906040515f60405180830381858888f1935050505015801561155f573d5f803e3d5ffd5b505b50565b5f60065490505f6006819055505f8111156115df5760025f9054906101000a900473ffffffffffffffffffffffffffffffffffffffff1673ffffffffffffffffffffffffffffffffffffffff166108fc8290811502906040515f60405180830381858888f193505050501580156115dd573d5f803e3d5ffd5b505b50565b5f60ff82169050919050565b6115f7816115e2565b82525050565b5f6020820190506116105f8301846115ee565b92915050565b5f73ffffffffffffffffffffffffffffffffffffffff82169050919050565b5f61163f82611616565b9050919050565b61164f81611635565b82525050565b5f6020820190506116685f830184611646565b92915050565b5f819050919050565b6116808161166e565b82525050565b5f6020820190506116995f830184611677565b92915050565b5f81519050919050565b5f82825260208201905092915050565b5f5b838110156116d65780820151818401526020810190506116bb565b5f8484015250505050565b5f601f19601f8301169050919050565b5f6116fb8261169f565b61170581856116a9565b93506117158185602086016116b9565b61171e816116e1565b840191505092915050565b5f6020820190508181035f83015261174181846116f1565b905092915050565b5f80fd5b5f80fd5b61175a81611635565b8114611764575f80fd5b50565b5f8135905061177581611751565b92915050565b6117848161166e565b811461178e575f80fd5b50565b5f8135905061179f8161177b565b92915050565b5f80fd5b5f80fd5b5f80fd5b5f8083601f8401126117c6576117c56117a5565b5b8235905067ffffffffffffffff8111156117e3576117e26117a9565b5b6020830191508360018202830111156117ff576117fe6117ad565b5b9250929050565b5f805f805f6080868803121561181f5761181e611749565b5b5f61182c88828901611767565b955050602061183d88828901611767565b945050604061184e88828901611791565b935050606086013567ffffffffffffffff81111561186f5761186e61174d565b5b61187b888289016117b1565b92509250509295509295909350565b7f4e487b71000000000000000000000000000000000000000000000000000000005f52602160045260245ffd5b600681106118c8576118c761188a565b5b50565b5f8190506118d8826118b7565b919050565b5f6118e7826118cb565b9050919050565b6118f7816118dd565b82525050565b5f6020820190506119105f8301846118ee565b92915050565b7f4e487b71000000000000000000000000000000000000000000000000000000005f52602260045260245ffd5b5f600282049050600182168061195a57607f821691505b60208210810361196d5761196c611916565b5b50919050565b7f6e6f7420627579657200000000000000000000000000000000000000000000005f82015250565b5f6119a76009836116a9565b91506119b282611973565b602082019050919050565b5f6020820190508181035f8301526119d48161199b565b9050919050565b7f6973206e6f742077616974696e6720666f72207061796d656e740000000000005f82015250565b5f611a0f601a836116a9565b9150611a1a826119db565b602082019050919050565b5f6020820190508181035f830152611a3c81611a03565b9050919050565b7f6e6f7420656e6f7567682076616c75652073656e7400000000000000000000005f82015250565b5f611a776015836116a9565b9150611a8282611a43565b602082019050919050565b5f6020820190508181035f830152611aa481611a6b565b9050919050565b7f4e487b71000000000000000000000000000000000000000000000000000000005f52601160045260245ffd5b5f611ae28261166e565b9150611aed8361166e565b9250828201905080821115611b0557611b04611aab565b5b92915050565b5f611b158261166e565b9150611b208361166e565b9250828202611b2e8161166e565b91508282048414831517611b4557611b44611aab565b5b5092915050565b7f4e487b71000000000000000000000000000000000000000000000000000000005f52601260045260245ffd5b5f611b838261166e565b9150611b8e8361166e565b925082611b9e57611b9d611b4c565b5b828204905092915050565b7f6973206e6f742077616974696e6720666f722064656c697665727900000000005f82015250565b5f611bdd601b836116a9565b9150611be882611ba9565b602082019050919050565b5f6020820190508181035f830152611c0a81611bd1565b9050919050565b7f6e6f742073656c6c6572000000000000000000000000000000000000000000005f82015250565b5f611c45600a836116a9565b9150611c5082611c11565b602082019050919050565b5f6020820190508181035f830152611c7281611c39565b9050919050565b7f6465706f736974206e6f74206d616465000000000000000000000000000000005f82015250565b5f611cad6010836116a9565b9150611cb882611c79565b602082019050919050565b5f6020820190508181035f830152611cda81611ca1565b9050919050565b7f6465616c206973206e6f7420636f6d706c6574656400000000000000000000005f82015250565b5f611d156015836116a9565b9150611d2082611ce1565b602082019050919050565b5f6020820190508181035f830152611d4281611d09565b9050919050565b7f6f7065726174696f6e2068617320616c7265616479206265656e20646f6e65005f82015250565b5f611d7d601f836116a9565b9150611d8882611d49565b602082019050919050565b5f6020820190508181035f830152611daa81611d71565b9050919050565b5f611dbb8261166e565b9150611dc68361166e565b9250828203905081811115611dde57611ddd611aab565b5b92915050565b7f4e487b71000000000000000000000000000000000000000000000000000000005f52604160045260245ffd5b5f819050815f5260205f209050919050565b5f6020601f8301049050919050565b5f82821b905092915050565b5f60088302611e6d7fffffffffffffffffffffffffffffffffffffffffffffffffffffffffffffffff82611e32565b611e778683611e32565b95508019841693508086168417925050509392505050565b5f819050919050565b5f611eb2611ead611ea88461166e565b611e8f565b61166e565b9050919050565b5f819050919050565b611ecb83611e98565b611edf611ed782611eb9565b848454611e3e565b825550505050565b5f90565b611ef3611ee7565b611efe818484611ec2565b505050565b5b81811015611f2157611f165f82611eeb565b600181019050611f04565b5050565b601f821115611f6657611f3781611e11565b611f4084611e23565b81016020851015611f4f578190505b611f63611f5b85611e23565b830182611f03565b50505b505050565b5f82821c905092915050565b5f611f865f1984600802611f6b565b1980831691505092915050565b5f611f9e8383611f77565b9150826002028217905092915050565b611fb78261169f565b67ffffffffffffffff811115611fd057611fcf611de4565b5b611fda8254611943565b611fe5828285611f25565b5f60209050601f831160018114612016575f8415612004578287015190505b61200e8582611f93565b865550612075565b601f19841661202486611e11565b5f5b8281101561204b57848901518255600182019150602085019450602081019050612026565b868310156120685784890151612064601f891682611f77565b8355505b6001600288020188555050505b505050505050565b5f82905092915050565b612091838361207d565b67ffffffffffffffff8111156120aa576120a9611de4565b5b6120b48254611943565b6120bf828285611f25565b5f601f8311600181146120ec575f84156120da578287013590505b6120e48582611f93565b86555061214b565b601f1984166120fa86611e11565b5f5b82811015612121578489013582556001820191506020850194506020810190506120fc565b8683101561213e578489013561213a601f891682611f77565b8355505b6001600288020188555050505b50505050505050565b5f819050919050565b5f67ffffffffffffffff82169050919050565b5f61218a61218561218084612154565b611e8f565b61215d565b9050919050565b61219a81612170565b82525050565b5f6020820190506121b35f830184612191565b92915050565b7f6e6f742073656c6c65722c206e6f742062757965722c206f72206465706f73695f8201527f742069732066726f7a656e000000000000000000000000000000000000000000602082015250565b5f612213602b836116a9565b915061221e826121b9565b604082019050919050565b5f6020820190508181035f83015261224081612207565b9050919050565b7f63616e6e6f742063616e63656c3a20696d70726f7065722073746174650000005f82015250565b5f61227b601d836116a9565b915061228682612247565b602082019050919050565b5f6020820190508181035f8301526122a88161226f565b905091905056fea26469706673582212208b01916c6ec26cf21dc353c1f61dbcc84b150c82fd2b06a437a81828177a632064736f6c63430008140033a26469706673582212204a0396f33fb4ee51f56a65e54d7e0fa65737db9a32c95d6565489bcbc5376ba364736f6c63430008140033",
  "immutableReferences": {},
  "source": "// SPDX-License-Identifier: UNLICENSED \npragma solidity ^0.8.20;\n\nimport \"./Escrow.sol\";\n\ncontract EscrowFactory {\n    event Created(address escrow);\n\n    function newEscrow(\n        address _buyer,\n        address _seller,\n        uint _cost,\n        string memory _description\n    ) public returns(address) {\n        Escrow escrow = new Escrow();\n        escrow.initialize(_buyer, _seller, _cost, _description);\n\n        emit Created(address(escrow));\n        return address(escrow);\n    }\n}\n",
  "sourcePath": "/home/denis/solidity/solidity_course/project/contracts/EscrowFactory.sol",
  "compiler": {
    "name": "solc",
    "version": "0.8.20+commit.a1b79de6.Emscripten.clang"
  },
  "schemaVersion": "3.4.13",
  "updatedAt": "2024-01-12T17:10:08.878Z",
  "devdoc": {
    "kind": "dev",
    "methods": {},
    "version": 1
  },
  "userdoc": {
    "kind": "user",
    "methods": {},
    "version": 1
  }
}