{
  "contractName": "Enrollment",
  "abi": [
    {
      "anonymous": false,
      "inputs": [
        {
          "indexed": false,
          "internalType": "uint8",
          "name": "groupNumber",
          "type": "uint8"
        },
        {
          "indexed": false,
          "internalType": "uint8",
          "name": "age",
          "type": "uint8"
        },
        {
          "indexed": false,
          "internalType": "string",
          "name": "name",
          "type": "string"
        }
      ],
      "name": "StudentAssigned",
      "type": "event"
    },
    {
      "inputs": [],
      "name": "GROUPS_COUNT",
      "outputs": [
        {
          "internalType": "uint8",
          "name": "",
          "type": "uint8"
        }
      ],
      "stateMutability": "view",
      "type": "function"
    },
    {
      "inputs": [
        {
          "internalType": "string",
          "name": "_name",
          "type": "string"
        },
        {
          "internalType": "uint8",
          "name": "_age",
          "type": "uint8"
        }
      ],
      "name": "assignToGroup",
      "outputs": [
        {
          "internalType": "uint8",
          "name": "",
          "type": "uint8"
        }
      ],
      "stateMutability": "nonpayable",
      "type": "function"
    },
    {
      "inputs": [
        {
          "internalType": "uint8",
          "name": "_groupNumber",
          "type": "uint8"
        }
      ],
      "name": "getStudents",
      "outputs": [
        {
          "components": [
            {
              "internalType": "uint8",
              "name": "age",
              "type": "uint8"
            },
            {
              "internalType": "string",
              "name": "name",
              "type": "string"
            }
          ],
          "internalType": "struct Enrollment.Student[]",
          "name": "",
          "type": "tuple[]"
        }
      ],
      "stateMutability": "view",
      "type": "function"
    }
  ],
  "bytecode": "0x608060405234801561001057600080fd5b50610c21806100206000396000f3fe608060405234801561001057600080fd5b50600436106100415760003560e01c8063498977b4146100465780636d63331814610064578063a88e0bea14610094575b600080fd5b61004e6100c4565b60405161005b91906103b6565b60405180910390f35b61007e60048036038101906100799190610407565b6100c9565b60405161008b91906105d2565b60405180910390f35b6100ae60048036038101906100a99190610659565b610238565b6040516100bb91906103b6565b60405180910390f35b600581565b6060600560ff168260ff1610610114576040517f08c379a000000000000000000000000000000000000000000000000000000000815260040161010b90610716565b60405180910390fd5b6000808360ff1660ff168152602001908152602001600020805480602002602001604051908101604052809291908181526020016000905b8282101561022d57838290600052602060002090600202016040518060400160405290816000820160009054906101000a900460ff1660ff1660ff16815260200160018201805461019c90610765565b80601f01602080910402602001604051908101604052809291908181526020018280546101c890610765565b80156102155780601f106101ea57610100808354040283529160200191610215565b820191906000526020600020905b8154815290600101906020018083116101f857829003601f168201915b5050505050815250508152602001906001019061014c565b505050509050919050565b600080600560ff16858585426040516020016102579493929190610836565b6040516020818303038152906040528051906020012060001c61027a91906108a0565b90506000808260ff1660ff16815260200190815260200160002060405180604001604052808560ff16815260200187878080601f016020809104026020016040519081016040528093929190818152602001838380828437600081840152601f19601f82011690508083019250505050505050815250908060018154018082558091505060019003906000526020600020906002020160009091909190915060008201518160000160006101000a81548160ff021916908360ff160217905550602082015181600101908161034f9190610aac565b5050507f738c46009977115586b9161cd63295283c534b1915d28b850d57607c48622662818487876040516103879493929190610bab565b60405180910390a1809150509392505050565b600060ff82169050919050565b6103b08161039a565b82525050565b60006020820190506103cb60008301846103a7565b92915050565b600080fd5b600080fd5b6103e48161039a565b81146103ef57600080fd5b50565b600081359050610401816103db565b92915050565b60006020828403121561041d5761041c6103d1565b5b600061042b848285016103f2565b91505092915050565b600081519050919050565b600082825260208201905092915050565b6000819050602082019050919050565b6104698161039a565b82525050565b600081519050919050565b600082825260208201905092915050565b60005b838110156104a957808201518184015260208101905061048e565b60008484015250505050565b6000601f19601f8301169050919050565b60006104d18261046f565b6104db818561047a565b93506104eb81856020860161048b565b6104f4816104b5565b840191505092915050565b60006040830160008301516105176000860182610460565b506020830151848203602086015261052f82826104c6565b9150508091505092915050565b600061054883836104ff565b905092915050565b6000602082019050919050565b600061056882610434565b610572818561043f565b93508360208202850161058485610450565b8060005b858110156105c057848403895281516105a1858261053c565b94506105ac83610550565b925060208a01995050600181019050610588565b50829750879550505050505092915050565b600060208201905081810360008301526105ec818461055d565b905092915050565b600080fd5b600080fd5b600080fd5b60008083601f840112610619576106186105f4565b5b8235905067ffffffffffffffff811115610636576106356105f9565b5b602083019150836001820283011115610652576106516105fe565b5b9250929050565b600080600060408486031215610672576106716103d1565b5b600084013567ffffffffffffffff8111156106905761068f6103d6565b5b61069c86828701610603565b935093505060206106af868287016103f2565b9150509250925092565b600082825260208201905092915050565b7f57726f6e672067726f7570206e756d6265720000000000000000000000000000600082015250565b60006107006012836106b9565b915061070b826106ca565b602082019050919050565b6000602082019050818103600083015261072f816106f3565b9050919050565b7f4e487b7100000000000000000000000000000000000000000000000000000000600052602260045260246000fd5b6000600282049050600182168061077d57607f821691505b6020821081036107905761078f610736565b5b50919050565b600081905092915050565b82818337600083830152505050565b60006107bc8385610796565b93506107c98385846107a1565b82840190509392505050565b60008160f81b9050919050565b60006107ed826107d5565b9050919050565b6108056108008261039a565b6107e2565b82525050565b6000819050919050565b6000819050919050565b61083061082b8261080b565b610815565b82525050565b60006108438286886107b0565b915061084f82856107f4565b60018201915061085f828461081f565b60208201915081905095945050505050565b7f4e487b7100000000000000000000000000000000000000000000000000000000600052601260045260246000fd5b60006108ab8261080b565b91506108b68361080b565b9250826108c6576108c5610871565b5b828206905092915050565b7f4e487b7100000000000000000000000000000000000000000000000000000000600052604160045260246000fd5b60008190508160005260206000209050919050565b60006020601f8301049050919050565b600082821b905092915050565b6000600883026109627fffffffffffffffffffffffffffffffffffffffffffffffffffffffffffffffff82610925565b61096c8683610925565b95508019841693508086168417925050509392505050565b6000819050919050565b60006109a96109a461099f8461080b565b610984565b61080b565b9050919050565b6000819050919050565b6109c38361098e565b6109d76109cf826109b0565b848454610932565b825550505050565b600090565b6109ec6109df565b6109f78184846109ba565b505050565b5b81811015610a1b57610a106000826109e4565b6001810190506109fd565b5050565b601f821115610a6057610a3181610900565b610a3a84610915565b81016020851015610a49578190505b610a5d610a5585610915565b8301826109fc565b50505b505050565b600082821c905092915050565b6000610a8360001984600802610a65565b1980831691505092915050565b6000610a9c8383610a72565b9150826002028217905092915050565b610ab58261046f565b67ffffffffffffffff811115610ace57610acd6108d1565b5b610ad88254610765565b610ae3828285610a1f565b600060209050601f831160018114610b165760008415610b04578287015190505b610b0e8582610a90565b865550610b76565b601f198416610b2486610900565b60005b82811015610b4c57848901518255600182019150602085019450602081019050610b27565b86831015610b695784890151610b65601f891682610a72565b8355505b6001600288020188555050505b505050505050565b6000610b8a83856106b9565b9350610b978385846107a1565b610ba0836104b5565b840190509392505050565b6000606082019050610bc060008301876103a7565b610bcd60208301866103a7565b8181036040830152610be0818486610b7e565b90509594505050505056fea26469706673582212208e237fee142e0f30ef93b275ad33ceeaac56369b74d30f8c4772e85f1c57fa4a64736f6c63430008130033",
  "immutableReferences": {},
  "source": "// SPDX-License-Identifier: UNLICENSED \npragma solidity ^0.8.0;\n\ncontract Enrollment {\n    // Age first/last doesn't really matter, but DST imho should be last\n    struct Student {\n        uint8 age;\n        string name;\n    }\n\n    // uint8 because we now don't need more, 255 is enough\n    uint8 public constant GROUPS_COUNT = 5;\n    // Mapping from group number to Students in it\n    mapping (uint8 => Student[]) private groupStudents;\n\n    // Event shows that we enrolled student\n    event StudentAssigned(uint8 groupNumber, uint8 age, string name); \n\n    // calldata instead of memory for optimization\n    function assignToGroup(string calldata _name, uint8 _age) external returns(uint8) {\n        // Random group\n        uint8 groupNumber = uint8(uint256(keccak256(abi.encodePacked(_name, _age, block.timestamp))) % GROUPS_COUNT);\n\n        // Add student and emit event\n        groupStudents[groupNumber].push(Student(_age, _name));\n        emit StudentAssigned(groupNumber, _age, _name); \n\n        return groupNumber;\n    }\n\n    function getStudents(uint8 _groupNumber) external view returns (Student[] memory) {\n        require(_groupNumber < GROUPS_COUNT, \"Wrong group number\");\n        return groupStudents[_groupNumber];\n    }\n}\n",
  "sourcePath": "/home/denis/solidity/solidity_course/1 task/contracts/enrollment.sol",
  "compiler": {
    "name": "solc",
    "version": "0.8.19+commit.7dd6d404.Emscripten.clang"
  },
  "schemaVersion": "3.4.13",
  "updatedAt": "2023-12-13T20:34:20.505Z",
  "devdoc": {
    "kind": "dev",
    "methods": {},
    "version": 1
  },
  "userdoc": {
    "kind": "user",
    "methods": {},
    "version": 1
  }
}